:1000000039C4000068C4000066C4000064C4000075
:1000100062C4000060C400005EC400005CC4000054
:100020005AC4000058C4000056C4000054C4000064
:1000300052C4000050C400004EC400004CC4000074
:100040004AC400000C946D2846C4000044C400005B
:1000500042C4000040C400003EC400000C94992734
:100060003AC400000C9463270C94392734C4000070
:1000700032C4000030C400002EC400002CC40000B4
:100080000C943F2828C4000026C4000024C40000AB
:1000900022C4000020C400001EC400000C949B2851
:1000A0001AC4000018C400000C94112814C40000E5
:1000B00012C4000010C400000EC400000C94E3271A
:1000C0000AC4000008C4000006C4000004C4000004
:1000D00002C4000000C40000FEC30000FCC3000016
:1000E000FAC3000000407A10F35A00A0724E1809BB
:1000F0000010A5D4E80000E87648170000E40B548F
:10010000020000CA9A3B000000E1F505000080965D
:100110009800000040420F000000A086010000008F
:10012000102700000000E803000000006400000049
:1001300000000A00000000000100000000002C7612
:10014000D888DC674F0823DFC1DFAE59E1B1B7962D
:10015000E5E3E453C63AE651997696E8E6C284268A
:10016000EB898C9B62ED407C6FFCEFBC9C9F40F266
:10017000BAA56FA5F490055A2AF75C936B6CF967E2
:100180006DC11BFCE0E40D47FEF520E6B500D0EDA7
:10019000902E0300943577050080841E080000200F
:1001A0004E0A000000C80C333333330F986E1283AD
:1001B0001141EF8D2114893BE65516CFFEE6DB1881
:1001C000D1844B381BF77C1D901DA4BBE424203246
:1001D00084725E228100C9F124ECA1E53D2704E090
:1001E00010021C07123732292D29252B3900010353
:1001F00010E110031D07062E2C292D2E2E373F004F
:1002000000021013800A298064022A040000007F83
:100210002B040000009F0F0180961180FFB10301A5
:100220002C2DB203012C2DB306012C2D012C2DB445
:100230000107C003A20284C101C5C2020A00C302B1
:100240008A2AC4028AEEC5010E20003601C83A018E
:100250000500000000003E5B4F5B3E3E6B4F6B3E77
:100260001C3E7C3E1C183C7E3C181C577D571C1CB9
:100270005E7F5E1C00183C1800FFE7C3E7FF001814
:10028000241800FFE7DBE7FF30483A060E262979FD
:100290002926407F050507407F05253F5A3CE73C5E
:1002A0005A7F3E1C1C08081C1C3E7F14227F22140F
:1002B0005F5F005F5F06097F017F006689956A6066
:1002C0006060606094A2FFA29408047E040810207D
:1002D0007E201008082A1C08081C2A08081E101076
:1002E00010100C1E0C1E0C30383E3830060E3E0E20
:1002F00006000000000000005F000000070007008B
:10030000147F147F14242A7F2A1223130864623670
:10031000495620500008070300001C2241000041FC
:10032000221C002A1C7F1C2A08083E080800807036
:100330003000080808080800006060002010080469
:10034000023E5149453E00427F40007249494946BC
:100350002141494D331814127F1027454545393C3A
:100360004A49493141211109073649494936464927
:1003700049291E0000140000004034000000081449
:1003800022411414141414004122140802015909C2
:10039000063E415D594E7C1211127C7F4949493617
:1003A0003E414141227F4141413E7F494949417F90
:1003B000090909013E414151737F0808087F004146
:1003C0007F41002040413F017F081422417F40408F
:1003D00040407F021C027F7F0408107F3E41414164
:1003E0003E7F090909063E4151215E7F09192946D0
:1003F000264949493203017F01033F4040403F1FE6
:100400002040201F3F4038403F631408146303041A
:100410007804036159494D43007F4141410204087A
:100420001020004141417F0402010204404040404D
:1004300040000307080020545478407F2844443883
:100440003844444428384444287F385454541800CD
:10045000087E090218A4A49C787F0804047800444C
:100460007D40002040403D007F1028440000417F37
:1004700040007C047804787C0804047838444444C0
:1004800038FC1824241818242418FC7C08040408B8
:10049000485454542404043F44243C4040207C1CD1
:1004A0002040201C3C4030403C44281028444C90C4
:1004B00090907C4464544C4400083641000000771E
:1004C0000000004136080002010204023C262326F7
:1004D0003C1EA1A161123A4040207A38545455592B
:1004E0002155557941225454784221555478402061
:1004F000545579400C1E527212395555555939547C
:1005000054545939555454580000457C4100024513
:100510007D420001457C407D1211127DF028252886
:10052000F07C545545002054547C547C0A097F4982
:1005300032494949323A4444443A324A4848303AC6
:100540004141217A3A42402078009DA0A07D3D4261
:1005500042423D3D4040403D3C24FF2424487E49EA
:1005600043662B2FFC2F2BFF0929F620C0887E091C
:100570000320545479410000447D413048484A32B8
:10058000384040227A007A0A0A727D0D19317D26A0
:1005900029292F28262929292630484D4020380886
:1005A00008080808080808382F10C8ACBA2F102807
:1005B00034FA00007B000008142A142222142A14A2
:1005C000085500550055AA55AA55AAFF55FF55FFD5
:1005D000000000FF00101010FF00141414FF0010A2
:1005E00010FF00FF1010F010F0141414FC0014148D
:1005F000F700FF0000FF00FF1414F404FC141417AC
:10060000101F10101F101F1414141F00101010F0D2
:10061000000000001F101010101F10101010F0101C
:10062000000000FF101010101010101010FF10002C
:100630000000FF140000FF00FF00001F1017000063
:10064000FC04F414141710171414F404F40000FF3D
:1006500000F714141414141414F700F714141417D6
:100660001410101F101F141414F4141010F010F0B4
:1006700000001F101F0000001F14000000FC1400E9
:1006800000F010F01010FF10FF141414FF141010DD
:10069000101F00000000F010FFFFFFFFFFF0F0F060
:1006A000F0F0FFFFFF0000000000FFFF0F0F0F0F33
:1006B0000F3844443844FC4A4A4A347E0202060653
:1006C000027E027E0263554941633844443C044043
:1006D0007E201E2006027E020299A5E7A5991C2A0B
:1006E000492A1C4C7201724C304A4D4D30304878CA
:1006F0004830BC625A463D3E494949007E010101ED
:100700007E2A2A2A2A2A44445F444440514A4440CB
:1007100040444A51400000FF0103E080FF00000810
:10072000086B6B083612362436060F090F060000D8
:1007300018180000001010003040FF0101001F01D8
:10074000011E00191D1712003C3C3C3C000000003B
:100750000000002100240027002A002D0030003373
:100760000001010000040107010A0100002000232C
:1007700000260029002C002F003200000100000399
:10078000010601090100000A0B02090C0D0E080701
:100790000304010000000000000000000000000051
:1007A0000000000000000000000000000000000049
:1007B0000012111000000000000000000000000006
:1007C00000000000000000000000000102102020D6
:1007D0000808102040102040800201020108040295
:1007E000010102040810204080804020100804020B
:1007F0000180040201804020100804020108040264
:100800000101020408102040800102040810204069
:100810008000002200250028002B002E003100342B
:100820000002010000050108010B0105050505078F
:100830000508080808020202020A0A08080404045B
:100840000401010101010101010303030303030387
:1008500003040707070C0C0C0C0C0C0C0C02020216
:100860000206060606060606060B0B0B0B0B0B0B09
:100870000B00BB2911241FBECFEFD1E2DEBFCDBFDD
:1008800000E00CBF15E0A0E0B2E0E2E6FBE600E02D
:100890000BBF02C007900D92A235B107D9F728E02F
:1008A000A2E5B5E001C01D92AC31B207E1F714E05A
:1008B000CAE3D4E000E006C021970109802FFE01C1
:1008C0000E947233C933D10780E00807A9F70E945C
:1008D000492A0C94AF3594CBAF92BF92CF92DF925E
:1008E000EF92FF920F931F93CF93DF93CDB7DEB7B5
:1008F000A0970FB6F894DEBF0FBECDBF298B3A8B01
:100900004B8B5C8B6D8B7E8B8F8B988FA98EBA8E69
:10091000CB8EDC8EED8EFE8E0F8F18A388E0FE014D
:100920007196DE01119601900D928A95E1F788E0AB
:10093000FE017996DE01199601900D928A95E1F7F4
:10094000FE013196DE011996CD01419151912D9113
:100950003D9142175307B8F0E817F907B1F780E067
:1009600091E08927A0960FB6F894DEBF0FBECDBFE9
:10097000DF91CF911F910F91FF90EF90DF90CF907B
:10098000BF90AF90089581E0EBCFDC0113961C92ED
:100990001E92129720E830E015963C932E93149700
:1009A00080EA90E017969C938E93169719963C9345
:1009B0002E9318971B969C938E931A9756961C927B
:1009C00056971D961C921E921C971F961C921E9263
:1009D0001E9781E055968C93559754968C93549717
:1009E0002FEF3FEF53963C932E93529751963C93A3
:1009F0002E93509757968C93579758961C925897CA
:100A00005A961C921E92599780E392E011969C93FD
:100A10008E93D5961C92D59785E2D6968C93D697D1
:100A200080E3D7968C93D79781E3D8968C93D89709
:100A3000DA961C921E92D997DC961C921E92DB9736
:100A4000DD961C92DD97DE961C92DE97FD01FF96E7
:100A500010821182128213828CE397E090969C930D
:100A60008E935F97ECE5F8E0E491F0E0EE0FFF1F66
:100A7000EF5EF74F859194915E969C938E935D9770
:100A8000ECEFF7E08491D3968C93D397EBE5F8E005
:100A9000E491F0E0EE0FFF1FEF5EF74F25913491E8
:100AA0005C963C932E935B97EBEFF7E0E491D19645
:100AB000EC93D197E095D296EC93D297E82FE095FE
:100AC000D496EC930895DB0114964D915C911597A3
:100AD0006D917C91DC01ED91FC910280F381E02D20
:100AE0001994AF92BF92CF92DF92EF92FF920F9341
:100AF0001F93CF93DF936C017B018B01040F151FB4
:100B0000EB015E01AE18BF08C017D10759F069911B
:100B1000D601ED91FC910190F081E02DC60119956F
:100B2000892B79F7C501DF91CF911F910F91FF902C
:100B3000EF90DF90CF90BF90AF900895FC01538D60
:100B4000448D252F30E0842F90E0821B930B5417A7
:100B500010F0CF96089501970895FC01918D828D34
:100B6000981761F0A28DAE0FBF2FB11D5D968C91CD
:100B7000928D9F5F9F73928F90E008958FEF9FEF0C
:100B80000895FC01918D828D981731F0828DE80FC8
:100B9000F11D858D90E008958FEF9FEF0895FC0182
:100BA000918D228D892F90E0805C9F4F821B91094F
:100BB0008F73992708958EE896E0F1DF21E0892B65
:100BC00009F420E0822F0895FC01A48DA80FB92F0D
:100BD000B11DA35ABF4F2C91848D90E001968F7365
:100BE0009927848FA689B7892C93A089B1898C9184
:100BF000837080648C93938D848D981306C00288D3
:100C0000F389E02D80818F7D80830895EF92FF929C
:100C10000F931F93CF93DF93EC0181E0888F9B8D1F
:100C20008C8D98131AC0E889F989808185FF15C0D9
:100C30009FB7F894EE89FF896083E889F9898081FC
:100C40008370806480839FBF81E090E0DF91CF91CB
:100C50001F910F91FF90EF900895F62E0B8D10E0ED
:100C60000F5F1F4F0F731127E02E8C8D8E110BC05D
:100C70000FB607FCFACFE889F989808185FFF5CFA7
:100C8000CE01A2DFF2CFEB8DEC0FFD2FF11DE35A69
:100C9000FF4FF0829FB7F8940B8FEA89FB89808120
:100CA0008062D0CFCF93DF93EC01888D8823B1F0A1
:100CB000AA89BB89E889F9898C9185FD03C0808167
:100CC00086FD0CC00FB607FCF7CF8C9185FFF2CFE5
:100CD000808185FFEDCFCE0177DFEACFDF91CF9125
:100CE000089580E090E0892B21F065DF81110E945A
:100CF000000080E090E0892B49F080E090E0892BB3
:100D000029F00E94000081110E94000080E090E024
:100D1000892B49F080E090E0892B29F00E940000A7
:100D200081110E94000080E090E0892B49F080E072
:100D300090E0892B29F00E94000081110C940000A2
:100D400008958150823108F05AC0E82FF0E08827DA
:100D5000E355F94F8F4F0C947233CD06D106BF0681
:100D6000C506C906FF06D406DA06DE06E406E8066E
:100D7000EC06F206F606FF06FA0600070407809165
:100D800080008F77809380000895809180008F7D10
:100D9000F9CF80918000877FF5CF84B58F7784BDB0
:100DA000089584B58F7DFBCF8091B0008F778093BD
:100DB000B00008958091B0008F7DF9CF80919000B0
:100DC0008F77809390000895809190008F7DF9CF68
:100DD00080919000877FF5CF8091A0008F778093DE
:100DE000A00008958091A0008F7DF9CF8091A00090
:100DF000877FF5CF809120018F7780932001089520
:100E0000809120018F7DF9CF80912001877FF5CFE0
:100E1000CF93DF93282F30E0F901EB57F84F8491FF
:100E2000F901E553F84FD491F901E55DF74FC4910D
:100E3000CC2399F0811185DFEC2FF0E0EE0FFF1F3E
:100E4000E559F84FA591B491EC91ED2381E090E044
:100E500009F480E0DF91CF91089580E090E0FACF2F
:100E60001F93CF93DF93282F30E0F901EB57F84F12
:100E70008491F901E553F84FD491F901E55DF74FFD
:100E8000C491CC23A1F0162F81115BDFEC2FF0E091
:100E9000EE0FFF1FEF5EF74FA591B4918FB7F89457
:100EA000EC91111108C0D095DE23DC938FBFDF9148
:100EB000CF911F910895DE2BF8CFCF93DF9390E071
:100EC000FC01E553F84F2491855D974FFC01849117
:100ED0008823C9F090E0880F991FFC01EF5AF84F62
:100EE000A591B491FC01EF5EF74FC591D4916111CA
:100EF0000DC09FB7F8948C91209582238C938881A4
:100F0000282328839FBFDF91CF910895623051F449
:100F10009FB7F8943C91822F809583238C93E8812E
:100F20002E2BEFCF8FB7F894EC912E2B2C938FBFF5
:100F3000EACFEF92FF920F931F93CF93DF93D82FB7
:100F4000162F61E0BADF60E0812FB7DFC0E08BECE5
:100F5000E82E87E0F82E0C2F0170602F8D2F80DF98
:100F6000C7010197F1F7812F53DF0817190659F4CC
:100F7000CF5FCF3081F781E0DF91CF911F910F914B
:100F8000FF90EF90089580E0F7CF865320917B008B
:100F9000982F987F277F922B90937B008770806497
:100FA00080937C0080917A00806480937A008091A5
:100FB0007A0086FDFCCF80917800909179000895A9
:100FC0003FB7F8948091F5059091F605A091F7054B
:100FD000B091F80526B5A89B05C02F3F19F00196E2
:100FE000A11DB11D3FBFBA2FA92F982F8827BC0183
:100FF000CD01620F711D811D911D42E0660F771FAB
:10100000881F991F4A95D1F708952F923F924F92CA
:101010005F926F927F928F929F92AF92BF92CF9288
:10102000DF92EF92FF920F931F93CF93DF9300D045
:101030001F92CDB7DEB7FC012789308D232BF9F045
:10104000A389B4894B01AA24BB24082DC52ED62E12
:10105000E72EFF243C2D242F80A1882351F010E09F
:10106000010F08F40FEF310F08F43FEF210F08F4E0
:101070002FEF0C9311963C93119712962C93E18CC1
:10108000F28CE114F10409F45BC0438CA788B08CA6
:10109000C388D488D7018D919C91DC0112962D9044
:1010A0003C9019821A821B824420C9F14701B6E0A4
:1010B0008B0E911C10E000E0512C712C612CD4019E
:1010C0002D914D01222331F11296BC91BC83BB239B
:1010D00009F130E050E040E02F5F3F4F4F4F5F4F4E
:1010E000C301B2010E9450339B01AC016C81862F79
:1010F00090E0B0E0A0E0BC01CD016F5F7F4F8F4F6B
:101100009F4F0E945033A1E0B0E0AC0FBD1FA00F75
:10111000B11F8C930F5F1F4F0330110581F64F01F4
:1011200009811A812B81A501B601C701F101199529
:1011300047DFD4015C966D937D938D939C935F976D
:101140000F900F900F900F90DF91CF911F910F9103
:10115000FF90EF90DF90CF90BF90AF909F908F90D7
:101160007F906F905F904F903F902F9008958F9257
:101170009F92AF92BF92CF92DF92EF92FF926B015C
:101180007C011EDF4B015C01C114D104E104F104B8
:10119000B1F016DF681979098A099B09683E734026
:1011A0008105910588F321E0C21AD108E108F10810
:1011B00088EE880E83E0981EA11CB11CE5CFFF903D
:1011C000EF90DF90CF90BF90AF909F908F90089559
:1011D0002FB7F8946091F1057091F2058091F305B5
:1011E0009091F4052FBF08950F931F93F1DF609343
:1011F00096067093970680939806909399068EE8CA
:1012000096E0BFDC97FF1CC0E3DF009196061091CB
:1012100097062091980630919906601B710B820BFE
:10122000930B0091920610919306209194063091B1
:101230009506601771078207930708F38FEF9FEFFA
:101240001F910F910895AF92BF92CF92DF92EF92CC
:10125000FF920F931F93CF93DF936B017A01EC0101
:10126000C451DA4F28813CE0389F8001399F100D2E
:101270001124A090CD07B12C27FF1FC0FB011182C4
:10128000108288818F5F888388819801280F311DA3
:1012900087FD3A95F6012A153B051CF488818C30B0
:1012A000BCF180819181049680349C4908F471C01E
:1012B000F6018081918104966EC088819801280F83
:1012C000311D87FD3A952A153B05DCF68881A8017A
:1012D000480F511D87FD5A95FA01EE0FFF1FE40FCD
:1012E000F51FE35CF84F808186FFCBCF8881F80142
:1012F000E80FF11D87FDFA95CF01EE0FFF1FE80FF4
:10130000F91FE35CF84F808160E08F73A9DDB9CFEE
:10131000808191812881A801420F511D27FD5A9596
:101320009A01FA01EE0FFF1FE20FF31FE35CF84F83
:1013300021813281820F931FF701918380838881FD
:101340009801280F311D87FD3A95F901EE0FFF1F17
:10135000E20FF31FE35CF84F808186FF21C0888194
:10136000080F111D87FD1A95F801EE0FFF1FE00F02
:10137000F11FE35CF84F808161E08F73DF91CF91C3
:101380001F910F91FF90EF90DF90CF90BF90AF90A3
:1013900067CD80E49CE9F701918380838FEF888398
:1013A000DF91CF911F910F91FF90EF90DF90CF9041
:1013B000BF90AF9008952091A105260F3327331FCA
:1013C00021323105ECF42091C505FC0190E080E06C
:1013D000243069F082E00895A091A1052191AC012B
:1013E0004F575A4FA40FB52FB11D2C930196861756
:1013F00098F38091A105680F6093A10580E008959E
:1014000081E0089508958FEF9FEF08958FEF9FEF8C
:10141000089580917A0590E09195819591090895BC
:10142000CF93DF93CB01EA01642FC5DFCE01DF91BB
:10143000CF910895CF93DF931F92CDB7DEB7698325
:1014400061E0CE010196B7DF81E090E00F90DF917F
:10145000CF910895FC01A5A1B6A18C9192A58923F5
:101460008C93A5A1B6A18C9191A5892B8C930895FD
:10147000DC019396ED91FC919497908198968C91D4
:10148000892380830895DC019396ED91FC919497D4
:10149000908197968C91892B80830895DC01919699
:1014A000ED91FC919297908196968C9189238083FF
:1014B0000895DC019196ED91FC919297908195961B
:1014C0008C91892B80830895CF92DF92EF92FF92C7
:1014D0001F93CF93DF93EC016A017B018DA98111EA
:1014E00023C08F2D9927AA27BB278EBD0DB407FED9
:1014F000FDCFC701AA27BB278EBD0DB407FEFDCFC8
:10150000BB27AF2D9E2D8D2D8EBD0DB407FEFDCFBB
:10151000CEBC0DB407FEFDCFDF91CF911F91FF90A0
:10152000EF90DF90CF900895813091F410E2CE01DA
:10153000F7FE0CC0BEDFCE01A6DFCE0199DFCC0CDA
:10154000DD1CEE1CFF1C115091F7E6CFA7DFF3CF97
:10155000EF8DF8A18F2D9927AA27BB278083CE0175
:1015600079DFEF8DF8A1C701AA27BB278083CE01C1
:1015700071DFEF8DF8A1BB27AF2D9E2D8D2D8083C0
:10158000CE0168DFEF8DF8A1C082CE01DF91CF914F
:101590001F91FF90EF90DF90CF905CCFFF920F9361
:1015A0001F93CF93DF93EC018B018DA981110EC0A6
:1015B0001EBD0DB407FEFDCF0EBD0DB407FEFDCF61
:1015C000DF91CF911F910F91FF900895813091F499
:1015D00090E1F92ECE0117FF0BC06BDFCE0153DF78
:1015E000CE0146DF000F111FFA94F110F3CFE8CFC0
:1015F00055DFF4CFEF8DF8A11083CE012BDFEF8DF7
:10160000F8A10083CE01DF91CF911F910F91FF9040
:1016100021CF0F931F93CF93DF93EC01162F8DA94A
:10162000811109C06EBD0DB407FEFDCFDF91CF91D2
:101630001F910F910895813079F408E0CE0117FFD2
:1016400009C037DFCE011FDF110FCE0111DF0150BE
:10165000A9F7ECCF23DFF6CFEF8DF8A16083CE01A1
:10166000DF91CF911F910F91F5CECF93DF93EC01D6
:10167000ED8DFE8D80819CA989238083CE01C9DFF9
:10168000ED8DFE8D80819BA9892B8083DF91CF9189
:1016900008958F929F92AF92BF92CF92DF92EF9276
:1016A000FF920F931F93CF93DF93EC0189AD9AAD17
:1016B000680F791F8BAD9CAD480F591F2150310920
:1016C000260F371F4901B12CA12CCB01B0E0A0E0BF
:1016D000DC0199278827882A992AAA2ABB2A680127
:1016E00081E0C81AD108C40ED51EF12CE12C70E09F
:1016F00060E0BA0155274427C42AD52AE62AF72AEA
:101700006AE2CE01B2DFB501A401CE01DDDE6BE2FB
:10171000CE01ABDFB701A601CE01D6DE6CE2CE0171
:10172000DF91CF911F910F91FF90EF90DF90CF90BD
:10173000BF90AF909F908F9098CFFC0185A98111A9
:1017400004C091A182A19CBD8DBD08951F93CF932C
:10175000DF93EC01162FE881F9810284F385E02DF7
:101760001995112369F06DADCE017FDFE881F98114
:101770000688F789E02DCE01DF91CF911F91199452
:101780006EADF2CFAF92BF92CF92DF92EF92FF9207
:101790000F931F93CF93DF93EC0177FD37C08885BC
:1017A00099856817790794F557FD30C08A859B8520
:1017B000481759075CF569017A015B01E881F981F5
:1017C0000284F385E02DCE011995E881F98102A408
:1017D000F3A5E02D01E010E021E030E0A701B50124
:1017E000CE011995B601CE01D9DEE881F9810688CE
:1017F000F789E02DCE01DF91CF911F910F91FF90DE
:10180000EF90DF90CF90BF90AF901994DF91CF9180
:101810001F910F91FF90EF90DF90CF90BF90AF900E
:1018200008958F929F92AF92BF92CF92DF92EF92E4
:10183000FF920F931F93CF93DF93EC014901570160
:10184000E881F98102A4F3A5E02D19959401D8014E
:101850000E947A336B017C01C114D104E104F104CC
:1018600009F472C08DA9811115C081E0C81AD10890
:10187000E108F1088FEFC816D806E806F80609F463
:1018800063C0BEBC0DB407FEFDCFAEBC0DB407FEF9
:10189000FDCFEBCF813059F581E0C81AD108E108BE
:1018A000F1088FEFC816D806E806F80609F44CC010
:1018B0000B2D18E0CE0107FF16C0FBDDCE01E3DDE6
:1018C000CE01D6DD000F1150A9F70A2D18E0CE0188
:1018D00007FF0BC0EEDDCE01D6DDCE01C9DD000F66
:1018E0001150A9F7D9CFDADDE9CFD8DDF4CFBA109E
:1018F00015C0CC0CDD1CEE1CFF1CEF8DF8A1B082D6
:1019000081E0C81AD108E108F1088FEFC816D8069F
:10191000E806F806C9F0CE019DDDF2CF81E0C81AD5
:10192000D108E108F1088FEFC816D806E806F806D6
:1019300059F0EF8DF8A1B082CE018CDDEF8DF8A1CA
:10194000A082CE0187DDEACFDF91CF911F910F9169
:10195000FF90EF90DF90CF90BF90AF909F908F90CF
:1019600008958F929F92AF92BF92CF92DF92EF92A3
:10197000FF920F931F93CF93DF935C014B016A019A
:10198000E90177FD51C0DC0118968D919C91681793
:1019900079070CF049C0209709F446C037FF07C00B
:1019A000C9010196C80ED91ED195C195D109F5017D
:1019B00082859385C816D906BCF5A6014C0F5D1F1C
:1019C0009A012150310937FD2FC0D7FE03C0EA012B
:1019D000D12CC12C281739071CF0EC01CC19DD09DA
:1019E000D501ED91FC910284F385E02DC501199597
:1019F00078018E0121E030E0A601B401C50111DFBC
:101A0000D501ED91FC910688F789E02DC501DF91A4
:101A1000CF911F910F91FF90EF90DF90CF90BF90EB
:101A2000AF909F908F901994DF91CF911F910F915C
:101A3000FF90EF90DF90CF90BF90AF909F908F90EE
:101A400008958F929F92AF92BF92CF92DF92EF92C2
:101A5000FF920F931F93CF93DF935C016B014A01B9
:101A6000E90157FD51C0DC011A968D919C914817F0
:101A700059070CF049C0209709F446C037FF07C04A
:101A8000C9010196C80ED91ED195C195D109F5019C
:101A900080859185C816D906BCF5A6014C0F5D1F3F
:101AA0009A012150310937FD2FC0D7FE03C0EA014A
:101AB000D12CC12C281739071CF0EC01CC19DD09F9
:101AC000D501ED91FC910284F385E02DC5011995B6
:101AD000780101E010E09E01A401B601C501A1DE7C
:101AE000D501ED91FC910688F789E02DC501DF91C4
:101AF000CF911F910F91FF90EF90DF90CF90BF900B
:101B0000AF909F908F901994DF91CF911F910F917B
:101B1000FF90EF90DF90CF90BF90AF909F908F900D
:101B200008958F929F92AF92BF92CF92DF92EF92E1
:101B3000FF920F931F93CF93DF934C016B015A01D8
:101B4000E901209709F46BC00115110509F467C07C
:101B500037FF07C0C9010196C80ED91ED195C1959E
:101B6000D109F401A085B185CA16DB060CF057C077
:101B700017FF07C0C8010196A80EB91E119501955F
:101B80001109F40182859385A816B9060CF047C0A7
:101B9000F601EC0FFD1FAF014150510957FD3FC049
:101BA000B501600F711F9B012150310937FD37C00E
:101BB000D7FE03C0EF01D12CC12CB7FE03C08B01AF
:101BC000B12CA12C4A175B071CF0ED01CC19DD09E3
:101BD000281739071CF08C010A191B09D401ED9153
:101BE000FC910284F385E02DC40119959E01A501A5
:101BF000B601C40116DED401ED91FC910688F78987
:101C0000E02DC401DF91CF911F910F91FF90EF90D4
:101C1000DF90CF90BF90AF909F908F901994DF91FD
:101C2000CF911F910F91FF90EF90DF90CF90BF90D9
:101C3000AF909F908F900895EF92FF920F931F9314
:101C4000CF93DF9377FD31C0DC011896ED91FC91C5
:101C50006E177F0754F52115310539F137FF07C09D
:101C6000F90131964E0F5F1F319521953109DC0145
:101C70001A96ED91FC914E175F07BCF4EA01C20F72
:101C8000D31FDE011197B7FD10C057FF03C09E019F
:101C900050E040E0AE17BF071CF09F01241B350B3E
:101CA0007801890121E030E0BCDDDF91CF911F9107
:101CB0000F91FF90EF900895EF92FF920F931F9373
:101CC000CF93DF9357FD30C0DC011A96ED91FC9164
:101CD0004E175F074CF52115310531F137FF07C06D
:101CE000F90131966E0F7F1F319521953109DC0185
:101CF0001896ED91FC916E177F07B4F4EB01C20FBB
:101D0000D31FDE011197B7FD0FC077FF03C09E01FF
:101D100070E060E0AE17BF071CF09F01261B370B79
:101D2000780101E010E07DDDDF91CF911F910F91EF
:101D3000FF90EF9008958F929F92AF92BF92CF92B3
:101D4000DF92EF92FF920F931F93CF93DF934701A0
:101D50002115310509F44AC00115110509F446C0E1
:101D600037FF07C0F90131966E0F7F1F319521951E
:101D70003109DC011896AD90BC906A157B05B4F56D
:101D800017FF07C0F80131964E0F5F1F119501959F
:101D90001109DC011A96ED91FC914E175F0734F59D
:101DA0006B01C20ED31EE6012197D7FD1FC07A0139
:101DB000E00EF11ED7011197B7FD18C077FF03C0E1
:101DC000960170E060E057FF03C0870150E040E0FB
:101DD000CA15DB051CF09501261B370BAE17BF0794
:101DE0001CF08F01041B150B74011BDDDF91CF91DB
:101DF0001F910F91FF90EF90DF90CF90BF90AF9029
:101E00009F908F900895EF92FF920F931F93CF931F
:101E1000DF93EC0177FD21C08885998568177907E4
:101E2000E4F457FD1AC08A859B8548175907ACF41E
:101E30007901E881F98102A4F3A5E02D01E010E029
:101E400021E030E0CE011995B701CE01DF91CF91AD
:101E50001F910F91FF90EF90A1CBDF91CF911F9138
:101E60000F91FF90EF900895CF93DF93EC0165DC25
:101E70008FA987FD06C0EB8DFC8D80819AA98923EF
:101E80008083DF91CF9108950895AF92BF92CF9252
:101E9000DF92EF92FF920F931F93CF93DF93BC01DA
:101EA0006F5F7F4FFC011491115008F475C0FB0166
:101EB000D4917B01F2E0EF0EF11CFB01319604910D
:101EC000C02FCF7787E496E038DC80917E0687FDCF
:101ED00009C0E0916206F0916306808190917906D5
:101EE00089238083E0916406F0916506808190915A
:101EF0007B06892380836D2F87E496E08ADBE0915F
:101F00006406F0916506808190917A06892B808322
:101F1000F701B12CA12CD0E0AC16BD06E4F4809101
:101F20007C066F01823079F480917706882359F01E
:101F3000619171916F0187E496E030DBEFEFAE1AAB
:101F4000BE0AF601E9CF8FEFC81AD80A649187E478
:101F500096E05FDBF3CF80917E0687FD09C0E091BC
:101F60006206F0916306808190917806892B8083C8
:101F7000B7016C0F7D1F07FF97CFEB012196FB0187
:101F8000649170E06F3F710511F464EF71E090E0CF
:101F900080E0EDD8BE0188CFDF91CF911F910F91E6
:101FA000FF90EF90DF90CF90BF90AF9008950F9388
:101FB0001F93CF93DF93EC018B01BFDB8FA987FDCC
:101FC00006C0EB8DFC8D80819AA989238083ED8DDD
:101FD000FE8D80819CA98923808366E3CE0119DB75
:101FE000ED8DFE8D80819BA9892B80838DA9F801C1
:101FF000823089F06081CE010CDB8FA987FD06C09D
:10200000EB8DFC8D808199A9892B8083DF91CF9105
:102010001F910F91089588A9882361F360817181D0
:10202000CE01BCDAEACFCF93DF931F92CDB7DEB7F4
:10203000FC0119826370668BDC01AD5BBF4F2C9194
:1020400030E011968C9190E0623031F06330C1F055
:10205000613079F040EC498332AF21AF94AF83AF68
:10206000BE016F5F7F4FCF01A2DF0F90DF91CF9155
:10207000089540EA498334AF23AF92AF81AFF0CFE8
:1020800040E6F8CFCF93DF931F92CDB7DEB7FC01C8
:1020900019826370668BDC01AA5BBF4F8C91982F0D
:1020A0009B7FAF014C5B5F4F913031F493E0623026
:1020B00008F091E0DA019C939F012D5B3F4F623065
:1020C00009F44BC0633009F45AC0613061F18230C9
:1020D00021F098EC843009F045C090EC9983813070
:1020E000C9F480E890E09387828791878087D9013F
:1020F0008C9190E092AF81AFDA018C9190E094AF37
:1021000083AFBE016F5F7F4FCF0151DF0F90DF9133
:10211000CF910895843051F580EA90E093878287CB
:1021200080E590E0E2CF823019F098EA843071F5D2
:1021300090EA99838130B1F580E890E091878087BB
:1021400093878287D9018C9190E094AF83AFDA01B5
:102150008C9190E092AF81AFD4CF823049F084303F
:10216000D9F298E09983813009F4BBCF8630A1F28F
:1021700080EA90E09387828780E890E0B6CF823053
:1021800019F098E6843011F490E6D3CF998381302A
:1021900099F2863051F480EA90E09187808780E55B
:1021A00090E0CECF8430B9F3F4CF80EA90E091870D
:1021B000808780E890E0C4CFFC0187A987FD06C036
:1021C000A38DB48D9C9181A9892B8C93089508953A
:1021D000FC016370668B8481958126813781613033
:1021E00039F0633029F091878087338722870895FB
:1021F000318720879387828708952F923F924F924D
:102200005F926F927F928F929F92AF92BF92CF9286
:10221000DF92EF92FF920F931F93CF93DF93CDB78F
:10222000DEB76A970FB6F894DEBF0FBECDBF9A8FA8
:10223000898F7A8369834A01D22E18870F833701E9
:10224000BC2CDC0159962D913C915A9721153105F2
:1022500009F015C118968D919C9119976817790707
:102260000CF0D7C11A968D919C91481759070CF024
:10227000D0C14C2C512CB6E0CB9E600D711D1124A9
:102280007C876B87161617060CF0C3C1EA2DF0E0A9
:10229000FA87E98793E0EE0FFF1F9A95E1F7F88B35
:1022A000EF87CF01840F951F181619060CF0B1C1E6
:1022B000A98DBA8D58968C91811104C0BFEABD15C5
:1022C00008F4D394A98DBA8DED91FC9111970284F5
:1022D000F385E02DCD011995B5E0DB9EC0011124F9
:1022E000E981FA81FC83EB83312C212C9C012F5A4C
:1022F0003D4F388F2F8B4A2D50E05E8B4D8BEF89F1
:10230000F88DE20DF31D44919E828D82D12CC12C5B
:1023100069817A81620D731D7A8B698B842F90E0BD
:102320009C8B8B8BE98DFA8DA081B18140FF82C09F
:10233000F1E0BF126FC0AF126DC01C96ED91FC9121
:102340002F813885A4014C0D5D1D69897A89898D9D
:102350009A8D1995EB89FC89F595E7954E2F5FEFDE
:10236000C51AD50A6D817E818D899E89680F791F76
:102370007E836D8398E0C916D10481F6AFEF2A1AE7
:102380003A0AEB81FC81E40DF51DFC83EB83F5E05B
:102390002F16310409F0B3CF2F8138852615370564
:1023A000B9F0A98DBA8DED91FC91B1E0BB1257C087
:1023B000AB1255C069817A816B5F7F4F0088F189CC
:1023C000E02D830128E030E0A401898D9A8D1995D4
:1023D000A98DBA8DED91FC9111970688F789E02DB2
:1023E000CD016A960FB6F894DEBF0FBECDBFDF9168
:1023F000CF911F910F91FF90EF90DF90CF90BF9002
:10240000AF909F908F907F906F905F904F903F9094
:102410002F9019941E96ED91FC91EF80F884098518
:102420001A8592014D815E816B817C81898D9A8DA7
:10243000199590CF2F8138852615370509F48ACF55
:1024400031E0B31207C0A31205C01C96ED91FC91B8
:10245000930178CF1E96ED91FC917301E0CF6B85CF
:102460007C85641975090684F785E02D73010F8555
:1024700018899201A401898D9A8D1995A9CFF90126
:1024800034969491329745915491D91AB7E0DB9ED6
:10249000400D511D1124F901259134913C8B2B8B5A
:1024A000FA0125903490FA01329674903196349165
:1024B000398B329664903196449041E04C1518F077
:1024C0004A1508F07FC0662D062C000C770B7C8324
:1024D0006B83842D042C000C990B9E838D83A98D16
:1024E000BA8DED91FC9111970284F385E02DCD0119
:1024F0001995512CD12CC12CEA2DF0E0FA87E987EF
:102500002B2D30E03C872B87A401440D511D47FC47
:102510005A95588F4F8B69817A81660D711D67FCC2
:102520007A957E876D877989C71608F051CF2C2D53
:1025300030E04D815E81420F531FA985BA854A9FC5
:10254000C0014B9F900D5A9F900D1124FC01E80D86
:10255000F91DF88BEF87852D612C4F89588D420F1F
:10256000531F5E8B4D8B671408F050C04424439476
:10257000480E877041F4C1010196EB89FC89E20D98
:10258000F31DD4901C01D7FE19C0A98DBA8DED9111
:10259000FC91662D70E0B1E0BB1219C0AB1217C000
:1025A0002D853E85620F731F0484F585E02D2F81F4
:1025B00038854D895E89898D9A8D1995DD0C6394D6
:1025C000842DD1CF1E821D821C821B8288CF4B811D
:1025D0005C81640F751FAB85BC856A9FC0016B9FD2
:1025E000900D7A9F900D112469817A81680F791F6F
:1025F0000684F785E02DEF80F88409851A859D0112
:102600004F855889898D9A8D1995D8CF570CC394C9
:102610008ACF6A960FB6F894DEBF0FBECDBFDF91AA
:10262000CF911F910F91FF90EF90DF90CF90BF90CF
:10263000AF909F908F907F906F905F904F903F9062
:102640002F9008958F929F92AF92CF92EF92FF9228
:102650000F931F93CF93DF93EC01262F898D9A8DD3
:10266000009709F050C06A30D1F41D861C868D8910
:1026700048E0849F900111248E859F85820F931FCF
:102680009F878E8781E090E0DF91CF911F910F911E
:10269000FF90EF90CF90AF909F908F9008956D3006
:1026A00089F3CC88AD888F898823C1F08C859D857E
:1026B00036E0C39E800D911D112448855985481729
:1026C000590764F44E855F851D861C8638E0A39EFD
:1026D000C0011124840F951F9F878E87EA88FB888D
:1026E000088919894E855F856C857D85CE0185DDDC
:1026F0002C898C859D8546E0249F800D911D112499
:102700009D878C87BFCF6A3069F41D861C86FC01CB
:102710003896E4912D898E859F85E29F800D911DCD
:102720001124AECF6D3009F4ADCFFC013496349155
:10273000631708F4A7CF3296E491E61708F4A2CF06
:10274000FC01329685909490462F431B342F47E02E
:10275000349F800C911C1124F401329634913196EF
:10276000E4913323A1F1EE2391F1CC88F401359665
:10277000E491AD884F89442301F10E2E000CFF0B2C
:10278000E30FF11DCE9EA001CF9E500D11246C854C
:102790007D85460F571F68857985641775076CF42A
:1027A0004E855F851D861C86FC013896E491AE9EA1
:1027B000400D511D11245F874E87EA88FB880889E8
:1027C00019894E855F856C857D85CE0116DDF40106
:1027D0003496E4912C898C859D85E29F800D911D16
:1027E00011248ECF682F87E496E02CCF6F927F92D2
:1027F0008F929F92AF92BF92CF92DF92EF92FF9211
:102800000F931F93CF93DF93EC016B015A013901B2
:102810004801E881F9810284F385E02D1995E8816A
:10282000F9810288F389E02D87019301A501B601A2
:10283000CE011995A501480D591D41505109E88156
:10284000F9810288F389E02D9301B601CE01199533
:10285000E881F9810088F189E02D9401A501B60194
:10286000CE011995C60CD71CB60161507109E881DB
:10287000F9810088F189E02D9401A501CE01199517
:10288000E881F9810688F789E02DCE01DF91CF91AB
:102890001F910F91FF90EF90DF90CF90BF90AF907E
:1028A0009F908F907F906F9019946F927F928F92EC
:1028B0009F92AF92BF92CF92DF92EF92FF920F93CF
:1028C0001F93CF93DF935C01EB016A01490138014B
:1028D0008701DC01ED91FC916217730719F564160D
:1028E00075062CF0962D872D3A01C92ED82E96010B
:1028F000261937092F5F3F4F048CF58DE02DA3017A
:10290000BE01C5011995DF91CF911F910F91FF90E5
:10291000EF90DF90CF90BF90AF909F908F907F907F
:102920006F9008954615570591F42617370724F040
:10293000892D4B01C22FD82F9E01281939092F5FED
:102940003F4F068CF78DE02DA601B401DACF02844B
:10295000F385E02D1995D501ED91FC910488F58959
:10296000E02D83019401A601BE01C5011995D50191
:10297000ED91FC910688F789E02DC501DF91CF919B
:102980001F910F91FF90EF90DF90CF90BF90AF908D
:102990009F908F907F906F901994EF92FF920F937A
:1029A0001F93DC011A960D911C911B9718962D917F
:1029B0003C911997ED91FC9100A0F1A1E02D7B01D4
:1029C00050E040E070E060E019951F910F91FF909A
:1029D000EF9008954F925F926F927F928F929F92A5
:1029E000AF92BF92CF92DF92EF92FF920F931F931D
:1029F000CF93DF936C012B015A0139014801DC01AF
:102A0000ED91FC910284F385E02D1995E201640CAF
:102A1000751CD601ED91FC91C615D7055CF40088B4
:102A2000F189E02D87019401A501BE01C601199528
:102A30002196EFCF0688F789E02DC601DF91CF916F
:102A40001F910F91FF90EF90DF90CF90BF90AF90CC
:102A50009F908F907F906F905F904F9019948F927E
:102A60009F92AF92BF92CF92DF92EF92FF920F931D
:102A70001F93CF93DF93EC015B014A016901E88169
:102A8000F9810284F385E02D199595012C0D3D1DEA
:102A900021503109E881F9810488F589E02D780118
:102AA0008401A401B501CE011995E881F981068858
:102AB000F789E02DCE01DF91CF911F910F91FF900B
:102AC000EF90DF90CF90BF90AF909F908F90199430
:102AD0008F929F92AF92BF92CF92DF92EF92FF922E
:102AE0000F931F93CF93DF93EC015B014A016901C0
:102AF0007801E881F9810284F385E02D1995C80CED
:102B0000D91C860101501109E881F9810488F589F1
:102B1000E02D9501A401B501CE011995E881F98157
:102B20000688F789E02DCE01DF91CF911F910F919B
:102B3000FF90EF90DF90CF90BF90AF909F908F90DD
:102B40001994EF92FF920F931F93DC01ED91FC918A
:102B500000A0F1A1E02D19951F910F91FF90EF902A
:102B600008950F931F93DC01ED91FC91068CF78D76
:102B7000E02D19951F910F9108950F931F93DC017C
:102B8000ED91FC91048CF58DE02D19951F910F911D
:102B90000895DC01ED91FC910084F185E02D1994FC
:102BA0002F923F924F925F926F927F928F929F925D
:102BB000AF92BF92CF92DF92EF92FF920F931F934B
:102BC000CF93DF9300D000D0CDB7DEB73C016A01D0
:102BD0003E832D83FC82EB825801A41AB50AB7FE0E
:102BE00003C0B194A194B1088D809E80861A970A83
:102BF00097FE03C09194819491088A149B045CF021
:102C0000902F812F0D811E819D838E839C2D8D2D74
:102C10006B01692F782F0C151D055CF09D818E814D
:102C20007E836D83692F782F902F812F8601C92E87
:102C3000D82E1601201A310A2B012D813E81421A0D
:102C4000530A57FE03C0519441945108710137FE55
:102C500003C03FEFE31AF30AF594E7948D819E8158
:102C6000861797075CF5A1E0B0E0BA83A983C01688
:102C7000D1064CF1D301ED91FC910484F585E02D52
:102C80002B813C81A8016D817E818A149B041CF0FC
:102C90004D815E81B801C3011995E418F508F7FE6E
:102CA0000AC02D813E8189819A81280F391F3E8378
:102CB0002D83E20CF31C0F5F1F4FD9CF2FEF3FEF97
:102CC0003A832983D4CF26960FB6F894DEBF0FBE81
:102CD000CDBFDF91CF911F910F91FF90EF90DF90CB
:102CE000CF90BF90AF909F908F907F906F905F90AC
:102CF0004F903F902F900895089590E080E00895C0
:102D0000CF93DF9300D000D01F921F92CDB7DEB7D4
:102D100062E087E20E945D0787E20E940807892B34
:102D2000D9F082E090E09A8389831C821B821E8204
:102D30001D8218861F8229813A814B815C816D81B9
:102D40007E818F81988528960FB6F894DEBF0FBEDE
:102D5000CDBFDF91CF91089587E20E940807892BAC
:102D600049F483E090E09A83898381E090E09C833A
:102D70008B83DDCFE8CF0F931F93CF93DF93209109
:102D800079052F5F322F37703093790520FF2BC0E4
:102D900020E831FD2064347009F02062205FFC01DE
:102DA000EC01239600E011E06485662329F070E0D1
:102DB000C8010E945F336F5F6187322F369F030E19
:102DC00030E0311D1124311110C01682662311F03C
:102DD000615061873196EC17FD0731F7DF91CF9194
:102DE0001F910F91089520E0D4CF31503683EECF5C
:102DF0004F925F927F928F929F92AF92BF92CF92AB
:102E0000DF92EF92FF920F931F93CF93DF932C01EA
:102E1000EB010E94E007F20127853089621B730BEA
:102E20006A307105B0F3F8948A819B8118161906EF
:102E30000CF0CDC1E881F98162B1862E689485F8E5
:102E400032B13F7D32B9DA848F812D2D281B822F3C
:102E50002F834F85042E000C550BAA81BB817D85E5
:102E6000FC84EE847F5FF394E3949E819884B9841C
:102E7000AB841181C12C6C2D0C2D2C2D218111279F
:102E800088942111280F08F42FEF8195889470FD04
:102E9000120F1795889471FD120F1795889472FD83
:102EA000120F1795889473FD120F1795889474FD6F
:102EB000120F1795889475FD120F1795889476FD5B
:102EC000120F1795889477FD120F17958894622F2B
:102ED0007111612F8D0D162F002C82B800C017FFC5
:102EE00032B920816627889400C000C0002C32B916
:102EF0002111290F00C0002C82B800C016FF32B982
:102F000008F42FEF9195889400C000C0002C32B9CE
:102F1000F0FC620F00C0002C82B800C015FF32B96F
:102F200067958894F1FC620F00C000C0002C32B994
:102F30006795889400C0002C82B800C014FF32B995
:102F4000F2FC620F6795889400C000C0002C32B973
:102F5000F3FC620F00C0002C82B800C013FF32B92E
:102F600067958894F4FC620F00C000C0002C32B951
:102F70006795889400C0002C82B800C012FF32B957
:102F8000F5FC620F6795889400C000C0002C32B930
:102F9000F6FC620F00C0002C82B800C011FF32B9ED
:102FA00067958894F7FC620F00C000C0002C32B90E
:102FB0006795889400C0002C82B800C010FF32B919
:102FC000122FF110162F9B0D00C000C0002C32B93B
:102FD00000C000C0002C82B800C017FF32B92281A7
:102FE0006627889400C000C0002C32B92111290D39
:102FF00000C0002C82B800C016FF32B908F42FEFD1
:10300000E40FF51F00C000C0002C32B9E0FC620FD5
:1030100000C0002C82B800C015FF32B967958894B3
:10302000E1FC620F00C000C0002C32B967958894A3
:1030300000C0002C82B800C014FF32B9E2FC620F5D
:103040006795889400C000C0002C32B9E3FC620F81
:1030500000C0002C82B800C013FF32B96795889475
:10306000E4FC620F00C000C0002C32B96795889460
:1030700000C0002C82B800C012FF32B9E5FC620F1C
:103080006795889400C000C0002C32B9E6FC620F3E
:1030900000C0002C82B800C011FF32B96795889437
:1030A000E7FC620F00C000C0002C32B9679588941D
:1030B00000C0002C82B800C010FF32B9122FE110FE
:1030C000162F919400C000C0002C32B99A0C00C099
:1030D00000C082B800C017FF32B9218166278894EA
:1030E00000C000C0002C32B92111280F00C0002CF4
:1030F00082B800C016FF32B908F42FEF819588948A
:1031000000C000C0002C32B970FD620F00C0002C5E
:1031100082B800C015FF32B96795889471FD620FBF
:1031200000C000C0002C32B96795889400C0002C04
:1031300082B800C014FF32B972FD620F679588949F
:1031400000C000C0002C32B973FD620F00C0002C1B
:1031500082B800C013FF32B96795889474FD620F7E
:1031600000C000C0002C32B96795889400C0002CC4
:1031700082B800C012FF32B975FD620F679588945E
:1031800000C000C0002C32B976FD620F00C0002CD8
:1031900082B800C011FF32B96795889477FD620F3D
:1031A00000C000C0002C32B96795889400C0002C84
:1031B00082B800C010FF32B9122F7111162F8D0D79
:1031C00000C000C0002C32B9119709F086CE4A81A8
:1031D0005B8120EE31E0DA010E948033DC01CB011B
:1031E000F4E0B695A79597958795FA95D1F730E0D5
:1031F00020E0B901EAE94E9F040E611D5E9F600D5B
:10320000711D1124650F711D860F971FA11DB11D22
:10321000893E43E09407A105B10508F434C0885EF7
:103220009340A109B10942E0B695A7959795879576
:103230004A95D1F747E0849F080E211D949F200DE9
:10324000311D1124290F311D6091780570E0860F22
:10325000971F820F931F4091F1055091F2056091E5
:10326000F3057091F405292F3327420F531F611D79
:10327000711D4093F1055093F2056093F30570932F
:10328000F4058093780578940E94E007F201708B32
:103290006787DF91CF911F910F91FF90EF90DF90A3
:1032A000CF90BF90AF909F908F907F905F904F9006
:1032B000089580E991E0089581E090E008950D9AE5
:1032C00008956F927F928F92CF92DF92EF92FF924A
:1032D0000F931F93CF93DF93CDB7DEB762970FB6EF
:1032E000F894DEBF0FBECDBF6C017A013801822E8B
:1032F000DC011C962C91CA0157FF04C0882799272E
:10330000841B950B7A8369839C838B839E838D8337
:103310006D867E868F86213041F5CE0101962BDDAC
:1033200083E0888B1A8A198AF7FE02C08DEF888B9A
:10333000D601ED91FC910684F785E02DBE016F5F0B
:103340007F4FC601199562960FB6F894DEBF0FBE87
:10335000CDBFDF91CF911F910F91FF90EF90DF9044
:10336000CF908F907F906F9008951C861B861A8651
:10337000198618861F82D4CFEF92FF920F931F9366
:10338000CF93DF93CDB7DEB762970FB6F894DEBF69
:103390000FBECDBF7C01DC011C968C917A836983C2
:1033A0005C834B835E834D830D871E872F8781301F
:1033B000F1F4CE010196DFDC188A1A8A198AD70146
:1033C000ED91FC910684F785E02DBE016F5F7F4F84
:1033D000C701199562960FB6F894DEBF0FBECDBF38
:1033E000DF91CF911F910F91FF90EF9008951C8670
:1033F0001B861A86198618861F82DECF90E080E031
:103400000895FC018585968508950F931F93CF93AA
:10341000DF9300D0CDB7DEB7AB0119821A821B82D1
:10342000DC01ED91FC910190F081E02D00E010E0D5
:1034300020E0BE016F5F7F4F19950F900F900F90A6
:10344000DF91CF911F910F910895CF92DF92EF926C
:10345000FF920F931F93CF93DF93EC016A017B01DF
:10346000C114D104E104F10439F4C12C48E4D42E90
:1034700048EEE42EFF24F394FE01FF96C082D18231
:10348000E282F38281E28DAF80E28EAF36961081C8
:103490008FA987FD07C061E00E945D0761E08FA9E9
:1034A0000E94300761E088AD0E945D0761E088AD51
:1034B0000E9430078DA9811182C040E052E16AE785
:1034C00070E0C416D506E606F70640F476956795D3
:1034D000579547958F5F8630A1F787E0212F2C7095
:1034E0002065982F9695922B99A3809581708AA339
:1034F000812F90E0B0E0A0E08BA39CA3ADA3BEA37E
:103500001FB7F8948091EB05811127C0E0E6F8E041
:103510008491E0E0F8E09491E82FF0E0EE0FFF1FD7
:10352000EF5AF84FA591B491EC91E92321F461E0B1
:1035300085E30E94300761E085E30E945D078CB55A
:1035400080618CBD8CB580648CBD61E084E30E9499
:103550005D0761E083E30E945D078091EB058F5F6B
:103560008093EB051FBF8EA987FD75C061E00E94A7
:103570005D0761E08EA90E94300764E670E080E09C
:1035800090E00E94B70860E08EA90E94300764E6D0
:1035900070E080E090E00E94B70861E08EA90E9490
:1035A000300768EC70E080E090E0DF91CF911F91F0
:1035B0000F91FF90EF90DF90CF900C94B7080BE243
:1035C00018E0F12C8130B9F461E08AA50E945D0712
:1035D00060E08AA50E94300761E08CA50E945D072B
:1035E00060E08CA50E9430078BA587FDBCCF60E012
:1035F0000E945D07B8CFF8018491E82FF0E0EE0F4C
:10360000FF1FEF5EF74F859194912F8D38A12817FA
:10361000390741F461E08F2D0E945D0760E08F2D36
:103620000E943007F3940F5F1F4FF6E4FF12E3CFC1
:1036300061E08EA50E945D0761E08EA50E943007C3
:103640008FA587FD90CF61E00E945D0761E08FA5A7
:103650000E94300788CFDF91CF911F910F91FF908B
:10366000EF90DF90CF900895FB0101900020E9F7E3
:103670003197AF01461B570BDC01ED91FC910280A5
:10368000F381E02D19948F929F92AF92BF920F9386
:103690001F93CF93DF93CDB7DEB7A1970FB6F89402
:1036A000DEBF0FBECDBF19A2423008F44AE08E0142
:1036B0000F5D1F4F842E912CB12CA12CA5019401DC
:1036C0000E944E32E62FB901CA01EA30FCF4E05DF7
:1036D000D801EE938D01232B242B252B79F790E035
:1036E00080E0109721F0BD018EE896E0BDDFA19645
:1036F0000FB6F894DEBF0FBECDBFDF91CF911F9103
:103700000F91BF90AF909F908F900895E95CE0CFAC
:103710006EE972E0A9CF0F931F93CF93DF93EC0173
:10372000A3DF8C01CE01F4DF800F911FDF91CF91D9
:103730001F910F91089598CF0E949B350F931F936F
:10374000CF93DF93EC0188819981009759F02A810A
:103750003B812617370730F081E0DF91CF911F9131
:103760000F9108958B016F5F7F4F0E94BF340097C8
:1037700059F0998388831B830A832C813D81232BF5
:1037800059F7FC011082E8CF80E0E7CFCF93DF93B9
:10379000EC0188819981009711F00E9436341982DA
:1037A00018821D821C821B821A82DF91CF9108959C
:1037B000EF92FF920F931F93CF93DF93EC01FB01E6
:1037C000E080F180E114F10409F104811581011513
:1037D0001105A1F08C819D81080F191FB801CE0140
:1037E000ADDF882399F0288139818C819D81B701D3
:1037F000820F931F0E94A8351D830C83CE01DF9199
:10380000CF911F910F91FF90EF900895CE01BEDFF1
:10381000F5CFEF92FF920F931F93CF93DF93EC01BD
:103820007B018A01BA018ADF81110AC0CE01AEDFB5
:10383000CE01DF91CF911F910F91FF90EF900895EE
:103840001D830C83B701888199810E94A835F0CF30
:10385000FB0101900020E9F73197AF01461B570BA0
:10386000D8CF0F931F93CF93DF93CDB7DEB7A19738
:103870000FB6F894DEBF0FBECDBF8C01CB01BA01ED
:10388000F8011182108213821282158214822AE0BA
:10389000AE014F5F5F4F0E947B2EBE016F5F7F4F77
:1038A000C801D6DFA1960FB6F894DEBF0FBECDBF1C
:1038B000DF91CF911F910F910895CF93DF93EC018A
:1038C000FB018617970741F06081718161157105D1
:1038D00039F0448155819DDFCE01DF91CF9108956C
:1038E00055DFFACFFC0111821082138212821582F9
:1038F0001482FB0101900020E9F73197AF01461BCC
:10390000570B87CFFC0180819181009711F00C94B7
:10391000363408951F93CF93DF9385ED8093BC00D9
:1039200080917D0590917E05A0917F05B0918005E5
:103930000796A11DB11D23E0B695A795979587958C
:103940002A95D1F72091BC0024FD03C01092C50533
:1039500052C040917D0550917E0560917F05709128
:103960008005452B462B472B69F30097A105B10530
:1039700041F02AE22A95F1F700C00197A109B109A7
:10398000E1CF80917C05C1E0C0937B05882399F14C
:10399000D091B8001091BA008091BC008A7B8093CE
:1039A000BC0060E084E10E94300760E085E10E9495
:1039B00030071092C505C093C7051092C60561E097
:1039C00084E10E94300761E085E10E943007809128
:1039D000B9008E7F8093B9008091B9008D7F80936C
:1039E000B90088E48093B80085E48093BC0010930C
:1039F000BA00D093B800DF91CF911F910895EF9254
:103A0000FF920F931F93CF93DF9300D01F92CDB7F8
:103A1000DEB7CE0101967C0110E000E0809138070E
:103A200090913907800F911F0E942E32F7018193E8
:103A30007F010F5F1F4F0430110581F769817A8183
:103A40008B819C810F900F900F900F90DF91CF9101
:103A50001F910F91FF90EF900895CF92DF92EF9218
:103A6000FF920F931F93CF93DF9300D01F92CDB798
:103A7000DEB769837A838B839C83625173478A495B
:103A800091096D3E7C4885469F4FD8F5CE01019641
:103A90007C0110E000E083E0D82EF701C080809127
:103AA0003807909139076C2D800F911F0E94363294
:103AB0008FE39CE90197F1F700C00000809138077F
:103AC00090913907800F911F0E942E32C81619F06D
:103AD000DA94D110E2CF0F5F1F4F9FEFE91AF90A76
:103AE00004301105C1F681E00F900F900F900F90F8
:103AF000DF91CF911F910F91FF90EF90DF90CF90CA
:103B0000089580E0F1CF2F923F924F925F926F9293
:103B10007F928F929F92AF92BF92CF92DF92EF925D
:103B2000FF920F931F93CF93DF93CDB7DEB7C658A5
:103B3000D1090FB6F894DEBF0FBECDBF80917005DE
:103B4000811130C78091CD07803308F055C191E0D5
:103B5000980F9093CD078093F90590E0FC01EE0F4C
:103B6000FF1FE80FF91FE35CF84F88EB9BE092839F
:103B700081838FEF9FEF9093FD058093FC0510925A
:103B8000FF051092FE0580EA94E090930106809371
:103B9000000680EA96E0909303068093020680E098
:103BA0009FEF909305068093040680EA9CEF909324
:103BB00007068093060680E098EC909309068093B0
:103BC00008060AE116E010930D0600930C068FE03C
:103BD00090E090930F0680930E06909311068093C9
:103BE000100610921306109212068FEF809314069F
:103BF000109219060E94E00760931506709316064E
:103C000080931706909318068DE2F80111928A9519
:103C1000E9F787E496E00E94C50410928A061092A4
:103C20008B0610928C0682E792E090934806809370
:103C3000470661EA72E08EE896E07DDDE0DE6F3FE8
:103C4000FFEF7F078F079F0709F0DAC06DEF72E083
:103C50008EE896E060DD80916805811145C0109284
:103C60005A05109259058FEF80935D0580935E058C
:103C700080935F0580936005809361058093620562
:103C800081E080936305109265051092640510929F
:103C90005C0510925B058091550590915605892B26
:103CA00031F487E595E09093560580935505E091B2
:103CB0005305F0915405309721F087E595E0958301
:103CC000848387E595E09093540580935305109283
:103CD0006705109266058CE192E0909358058093F9
:103CE000570581E0809368050D9A8AE196E09093EC
:103CF0005A05809359058FE090E090936505809375
:103D0000640580912E0790912F07A0913007B09104
:103D10003107843C29E09207A105B10520F484EC29
:103D200099E0A0E0B0E080932E0790932F07A09336
:103D30003007B093310787E595E0909313068093A1
:103D4000120640E050E0BA0187E496E07EDB86E1AF
:103D500092E00E94450F89E092E00E94450F8EEDAF
:103D600091E00E94450F80EC8983BE016F5F7F4F19
:103D700087E496E00E94D70F82E080938D0660E092
:103D800087E496E00E9442106091FC057091FD0569
:103D900087E496E00E94CD1410925A0610925906BC
:103DA000109258061092570661E084E00E945D0769
:103DB00061E084E00E945D07E9E8F7E0E491E1500A
:103DC000E23108F0C7C2F0E08827E651F14E8F4F8C
:103DD0000C947233061FFD2003210F211B21AA2101
:103DE000272130213921452151215D216E217A2160
:103DF000AA21862192219E218FEF8093F905B9CEC9
:103E00004AE041DC8EE896E083DC25CF84B580680B
:103E100084BD88EC87BD61E087E496E00E94421093
:103E200062E082E10E945D0782E10E940807892B1F
:103E300009F0D3C387E496E06BDC68E073E087E4C5
:103E400096E069DC87E496E063DC60E273E087E497
:103E500096E061DC69E373E087E496E05CDC62E5B0
:103E600073E087E496E057DC8EE896E00E94520605
:103E7000E091A006F091A10680818F7E8083E09181
:103E8000A006F091A1068081877F8083E091A00643
:103E9000F091A10680818F778083E091A006F09158
:103EA000A10680818F7D80838091A8068093A706DC
:103EB00010E0143081F080ED810F823060F08DECE5
:103EC000810F823040F0153231F0153421F061E07D
:103ED000812F0E945D071F5F163459F76E9A61E0CB
:103EE00088E20E94300782E10E940807892B09F0CE
:103EF0006CC31E8E1D8E8DE389838CE38A8381EFD4
:103F00008B838FEF8C8390E49D839FE39E839AE263
:103F10009F839EE3988797E4998799E19A879EE12A
:103F20009B879FE19C8791E49D879CE29E879DE211
:103F30009F879EE2988B92E0998B97E39A8B92E40D
:103F40009B8B91E29C8B97E19D8B94E49E8B93E4F9
:103F50009F8B96E1988F99E3998F9AE39A8F9CE1D2
:103F60009B8F91E09D8F88A395E199A394E19AA3FB
:103F700093E19BA398E39DA396E098A79EE099A761
:103F80009FE09AA79BE29BA790E29CA794E29DA743
:103F900092E29EA792EF9FA788AB83E090E09AAB56
:103FA00089AB81E090E09CAB8BAB1EAA1DAA18AE3A
:103FB0001FAA0E9480166A962FAF6A976B963FAF32
:103FC0006B976C964FAF6C976D965FAF6D976E96D3
:103FD0006FAF6E976F967FAF6F97A0968FAFA097DA
:103FE000A1969FAFA197A9A8BAA8CBA8DCA8EDA8D5
:103FF000FEA80FA918AD0E946C048111B0C187E022
:104000008C8F83E090E09AAB89AB81E090E09CAB31
:104010008BAB1EAA1DAA18AE1FAA0E948016A296DC
:104020002FAFA297A3963FAFA397A4964FAFA497A5
:10403000A5965FAFA597A6966FAFA697A7967FAFF9
:10404000A797A8968FAFA897A9969FAFA997A9A859
:10405000BAA8CBA8DCA8EDA8FEA80FA918AD0E94AD
:104060006C0481117EC186E38F8F83E090E09AAB70
:1040700089AB81E090E09CAB8BAB1EAA1DAA18AE69
:104080001FAA0E948016AA962FAFAA97AB963FAFA1
:10409000AB97AC964FAFAC97AD965FAFAD97AE9682
:1040A0006FAFAE97AF967FAFAF97E0968FAFE097C9
:1040B000E1969FAFE197A9A8BAA8CBA8DCA8EDA884
:1040C000FEA80FA918AD0E946C0481114CC188E0B4
:1040D0008CA383E090E09AAB89AB81E090E09CAB4D
:1040E0008BAB1EAA1DAA18AE1FAA0E948016E296CC
:1040F0002FAFE297E3963FAFE397E4964FAFE49795
:10410000E5965FAFE597E6966FAFE697E7967FAFE8
:10411000E797E8968FAFE897E9969FAFE997A9A848
:10412000BAA8CBA8DCA8EDA8FEA80FA918AD0E94DC
:104130006C0481111AC188E18EA383E090E09AABF0
:1041400089AB81E090E09CAB8BAB1EAA1DAA18AE98
:104150001FAA0E948016EA962FAFEA97EB963FAF10
:10416000EB97EC964FAFEC97ED965FAFED97EE9631
:104170006FAFEE97EF967FAFEF97C158DF4F888311
:10418000CF57D040C058DF4F9883C058D040A9A81F
:10419000BAA8CBA8DCA8EDA8FEA80FA918AD0E946C
:1041A0006C048111E4C085E08FA3CE0101964C011F
:1041B00094E0CF57DF4F9883C158D0401401ECE012
:1041C000CD57DF4FE883C358D04053E0652E712CA4
:1041D00044244394512C82E10E940807892B09F062
:1041E000DEC0F1018081813F09F4F8C008F0C1C050
:1041F000873409F4F1C061E0A8C184B5806284BD50
:1042000088EC88BD08CE8091800080688093800013
:1042100088EC90E09093890080938800FCCD809199
:10422000800080628093800088EC90E090938B0007
:1042300080938A00F0CD8091800088608093800018
:1042400088EC90E090938D0080938C00E4CD809179
:10425000B00080688093B00088EC8093B300DBCD21
:104260008091B00080628093B00088EC8093B400AD
:10427000D2CD8091900080688093900088EC90E08F
:104280009093990080939800C6CD809190008062B1
:104290008093900088EC90E090939B0080939A002C
:1042A000BACD8091900088608093900088EC90E077
:1042B00090939D0080939C00AECD8091A00080687B
:1042C0008093A0008091A0008F7B8093A00088EC59
:1042D00090E09093A9008093A8009DCD8091A000CC
:1042E00080628093A00088EC90E09093AB00809374
:1042F000AA0091CD8091A00088608093A00088ECF6
:1043000090E09093AD008093AC0085CD809120012A
:1043100080688093200188EC90E09093290180933D
:10432000280179CD8091200180628093200188EC62
:1043300090E090932B0180932A016DCD8091200114
:1043400088608093200188EC90E090932D01809309
:104350002C0161CD61E084E00E9430075CCD89E0F2
:104360004FCE85E081CE8AE0B3CE86E3E5CE88E10C
:104370001BCF823F09F4F0C08F3F09F03CCFCD57EF
:10438000DF4FF881C358D040F150CD57DF4FF8834D
:10439000C358D04024E0220E311CF1111CCF60E53F
:1043A00070E080E090E00E94B70864011CE082E1C8
:1043B0000E940807892B09F0E9C0F6018081833F3C
:1043C00008F0DBC0813F08F0DBC0873409F4FBC094
:1043D00060E00E943007D4C0769AD1CF8091520518
:1043E0007AAA69AA5CAA4BAA1EAA1DAA18AE1FAA7D
:1043F000882309F450C00E94801629AF3AAF4BAF12
:104400005CAF6DAF7EAF8FAF21969FAF2197A9A80C
:10441000BAA8CBA8DCA8EDA8FEA80FA918AD0E94E9
:104420006C04811134C08AE060E00E9430077AAAEF
:1044300069AA5CAA4BAA1EAA1DAA18AE1FAA0E94AE
:10444000801622962FAF229723963FAF239724966C
:104450004FAF249725965FAF259726966FAF269787
:1044600027967FAF279728968FAF289729969FAFDB
:104470002997A9A8BAA8CBA8DCA8EDA8FEA80FA9DF
:1044800018AD0E946C04811104C089E0B4CE87E0AD
:10449000CBCF88E0B0CE0E9480162A962FAF2A9705
:1044A0002B963FAF2B972C964FAF2C972D965FAF47
:1044B0002D972E966FAF2E972F967FAF2F976096E2
:1044C0008FAF609761969FAF6197A9A8BAA8CBA854
:1044D000DCA8EDA8FEA80FA918AD0E946C048111FC
:1044E00037C08AE061E00E9430077AAA69AA5CAA14
:1044F0004BAA1EAA1DAA18AE1FAA0E948016629679
:104500002FAF629763963FAF639764964FAF649700
:1045100065965FAF659766966FAF669767967FAF54
:10452000679768968FAF689769969FAF6997A9A8B4
:10453000BAA8CBA8DCA8EDA8FEA80FA918AD0E94C8
:104540006C04811107C089E060E00E94300717CF3A
:1045500087E0C8CF88E0F8CF80915205882339F0F2
:1045600060E08BE00E94300761E08CE0EECF61E01C
:104570008BE00E94300760E0F8CF8F3F09F028CF32
:104580001150F4E0CF0ED11C111111CF60E570E095
:1045900080E090E00E94B708CF57DF4F2881C158D4
:1045A000D0402150CF57DF4F2883C158D0403FEF34
:1045B000831A930A211102CE8091520591E0892736
:1045C0008093520590CC7698DBCF6091FC0570917A
:1045D000FD0587E496E00E94CD1462E08CE30E9422
:1045E0005D0762E082E20E945D078CE30E9408079B
:1045F000892B09F0C3C182E20E940807892B09F0C8
:10460000BDC16FEF7FEF87E496E00E94CD1410925A
:10461000540610925306109256061092550683E2E5
:104620000E94F213A0905306B090540687E496E0DF
:104630006FD88091550690915606CF57DF4F9983DA
:104640008883C158D040E090FC05F090FD059501AD
:10465000220F331F8C0150E040E070E060E087E4FF
:1046600096E00E94910D10925406109253061092FB
:1046700056061092550610925A061092590610923C
:1046800058061092570687E496E042D86BE673E02E
:1046900087E496E040D863E873E087E496E03BD88F
:1046A0006BE973E087E496E036D863EB73E087E468
:1046B00096E041D880E098EF90935A06809359068F
:1046C000909358068093570688E50E94F213109243
:1046D0005A0610925906109258061092570667EB28
:1046E00073E087E496E017D863EB73E087E496E025
:1046F00022D88FE190E090935A06809359069093C8
:1047000058068093570686E50E94F21310925A06C7
:104710001092590610925806109257066BEC73E0EF
:1047200087E496E00E948B1B63EB73E087E496E0DE
:1047300002D800E01CE010935A060093590610932B
:104740005806009357068FE40E94F21310925A06FF
:104750001092590610925806109257066FED73E0AA
:1047600087E496E00E948B1B63EF73E087E496E09A
:104770000E948B1B6BE074E087E496E00E948B1B29
:1047800063E274E087E496E00E948B1B6BE374E0C5
:1047900087E496E00E949B1B60905306709054063D
:1047A000C0905506D090560610935A0600935906AD
:1047B000109358060093570616E08FE40E94F213F8
:1047C0001150D9F710925A061092590610925806B5
:1047D0001092570660E374E087E496E00E948B1B1A
:1047E00069E574E087E496E00E948B1B61E774E062
:1047F00087E496E00E948B1B409055065090560629
:1048000068E074E087E496E00E949B1B20905306CA
:104810003090540665EF73E087E496E00E948B1BAE
:104820006BE673E087E496E00E948B1B86E08A9D2E
:10483000F0018B9DF00D1124CD57DF4FF983E883F4
:10484000C358D04084E18A9D90018B9D300D112486
:10485000CB57DF4F39832883C558D040DD247724D8
:10486000552433248FE1882E912CA12C98EFB92E5A
:10487000E090FC05F090FD05CF57DF4F08811981CE
:10488000C158D040CD57DF4F28813981C358D0401F
:10489000A601B30187E496E00E94910DE090FC052B
:1048A000F090FD05CF57DF4F08811981C158D040E6
:1048B000CB57DF4F28813981C558D040A201B101C3
:1048C00087E496E00E94910D66E182E00E949907DC
:1048D00011E0182787E30E94C507459708F012608A
:1048E00082E40E94C5078C3E934008F4146067E19F
:1048F00081E20E949907811101C0186084E40E943E
:10490000C507459708F0106183E40E94C5078C3EF7
:10491000934008F410627092540660925306D0924D
:104920005606C0925506112309F458C01F3309F0EA
:104930006EC020E03CE030935A0620935906309335
:1049400058062093570616E08FE40E94F213115088
:10495000D9F7309254062092530650925606409250
:10496000550669E874E087E496E00E949B1B64EFBB
:1049700071E080E090E00E94B7087ACF63E474E0D1
:104980008EE896E00E949B1B0E94E8084AE00E9485
:10499000431B62E574E08EE896E00E949B1B81E079
:1049A0008093700589EF95E0CA57DF4F0FB6F894F2
:1049B000DEBF0FBECDBFDF91CF911F910F91FF9052
:1049C000EF90DF90CF90BF90AF909F908F907F90AF
:1049D0006F905F904F903F902F90089590925A065D
:1049E00080925906909258068092570616E086E506
:1049F0000E94F2131150D9F73092540620925306B8
:104A0000509256064092550668E974E0ACCFF12CFE
:104A1000E12C012F10E0C8010E2C02C0959587955E
:104A20000A94E2F780FF25C0B0925A06A092590678
:104A3000B0925806A092570688E50E94F2133FEF05
:104A4000E31AF30A86E0E816F10429F7B0925A0651
:104A5000A0925906B0925806A0925706309254067A
:104A600020925306509256064092550664EA74E02E
:104A70007ACF90925A068092590690925806809268
:104A8000570686E5DACFBF92CF92DF92EF92FF9280
:104A90000F931F93CF93DF93CDB7DEB72C970FB64D
:104AA000F894DEBF0FBECDBF8C010E94FF1C6B01CE
:104AB0007C0122E1C21A23E7D20A2AE9E20AF108BC
:104AC000EDEECE16ECE8DE06E5E6EE06EFEFFE06CE
:104AD00070F119D8FC01E25BFF4F8AE090E0958706
:104AE000848784E690E0978786870DD8FC01E25B97
:104AF000FF4F81E0848B858B06D86FEA74E0825B80
:104B00009F4F0E949B1B0E94FF1C6B017C01F2E1E6
:104B1000CF1AF3E7DF0AFAE9EF0AF1082DEEC21621
:104B20002CE8D20625E6E2062FEFF20618F5AB01D7
:104B3000BC01CE0107960E94311C8B859C858A3072
:104B4000910508F0CAC063E175E0CE0101960E94AC
:104B5000721CBE01695F7F4FCE0101960E94D81B77
:104B6000BC01CE0107960E945D1CCE0101960E94F9
:104B7000821CE3CF64EC74E08EE896E00E948B1B0D
:104B80000E94E8086B017C01E0E3CE0EE5E7DE1E43
:104B9000E11CF11C8EE896E00E94CF05892BC1F440
:104BA0000E94E808C616D706E806F90698F768EFE7
:104BB00070E485E39CE30E942D1D68EE74E08EE8AE
:104BC00096E00E948B1BE6CF8EE896E00E94AD0532
:104BD0000E94F408FC0197FD7CC08D32910519F00C
:104BE000C0970A9788F7C12CD12C7601B12CE130FF
:104BF000F105D9F0ED32F10509F468C0CF01C09795
:104C00000A9798F4AAE0B0E0A70196010E94443206
:104C10006F01FF0FEE08FF08C60ED71EE81EF91E33
:104C2000F0E3CF1AD108E108F1088EE896E00E947F
:104C3000AD050E94F408FC01C0970A97C0F2E1306C
:104C4000F105A9F2BB2041F0F094E094D094C09417
:104C5000C11CD11CE11CF11CD701C6018251934734
:104C6000AA49B1098D3E9C48A546BF4F08F04BCFDD
:104C7000C701B6010E942D1D6DEF74E08EE896E02D
:104C80000E949B1BCE010196FEDEBE016F5F7F4F2F
:104C90008EE896E00E946305CE0101960E94821C78
:104CA000B701A601C8010E94311CC8012C960FB69D
:104CB000F894DEBF0FBECDBFDF91CF911F910F9152
:104CC000FF90EF90DF90CF90BF900895BB24B394F6
:104CD000ACCFC12CD12C7601BFCF2F813885F80104
:104CE0003183208329853A85338322839583848386
:104CF00018861F821A8619861C861B86CE01079687
:104D00000E94821CD2CFCF92DF92EF92FF920F933C
:104D10001F93CF93DF93CDB7DEB7AB970FB6F89461
:104D2000DEBF0FBECDBF7C010CA31DA32EA33FA3EE
:104D300048A759A76AA77BA7FE01B49684E011E0B3
:104D4000112331F011E020813181232B09F010E093
:104D5000815032968111F4CF1123A9F065E175E0FD
:104D6000C7010E94721CC701AB960FB6F894DEBF54
:104D70000FBECDBFDF91CF911F910F91FF90EF90AC
:104D8000DF90CF90089560EA72E0CE014E960E94C7
:104D9000721C6E018CE2C80ED11C04E0F6019291E7
:104DA00082916F01009719F4112309F447C0198EFD
:104DB000188E1B8E1A8E1D8E1C8E4AE0BE016F5FF0
:104DC0007F4FBAD7BE016F5F7F4FCE0148960E94DA
:104DD000281C6EE173E0013011F460EA72E0CE014C
:104DE00001960E94721C1B8A1A8A1D8A1C8A1F8ABD
:104DF0001E8ABE016F5F7F4FCE0142960E945D1CEE
:104E0000BE01685E7F4FCE0142960E94D81BBE0154
:104E1000625E7F4F0E94D81BBC01CE014E960E945D
:104E20005D1CCE0142960E94821CCE0101960E941A
:104E3000821CCE0148960E94821C11E0015009F0AC
:104E4000ADCF8E8D9F8DF7019183808388A199A12D
:104E5000938382838AA19BA1958384831F8E1E8E58
:104E600019A218A21BA21AA2CE014E960E94821C61
:104E70007ACF1F920F920FB60F9211240BB60F929A
:104E80002F933F934F935F936F937F938F939F9352
:104E9000AF93BF93EF93FF938EE896E00E94E405F3
:104EA000FF91EF91BF91AF919F918F917F916F9102
:104EB0005F914F913F912F910F900BBE0F900FBEBE
:104EC0000F901F9018951F920F920FB60F921124FA
:104ED0000BB60F922F938F939F93EF93FF93E091D5
:104EE0009E06F0919F068081E091A406F091A506B0
:104EF00082FD1DC090818091A7068F5F8F732091E6
:104F0000A806821741F0E091A706F0E0E257F94FBA
:104F1000958F8093A706FF91EF919F918F912F918D
:104F20000F900BBE0F900FBE0F901F9018958081B1
:104F3000F2CF1F920F920FB60F9211242F933F932F
:104F40008F939F93AF93BF938091F1059091F2055A
:104F5000A091F305B091F4053091F00523E0230F03
:104F60002D3758F50196A11DB11D2093F0058093B2
:104F7000F1059093F205A093F305B093F4058091A9
:104F8000F5059091F605A091F705B091F805019609
:104F9000A11DB11D8093F5059093F605A093F7052B
:104FA000B093F805BF91AF919F918F913F912F9151
:104FB0000F900FBE0F901F90189526E8230F0296B2
:104FC000A11DB11DD2CF1F920F920FB60F921124C7
:104FD0000BB60F922F933F934F935F936F937F93F3
:104FE0008F939F93AF93BF93EF93FF9348E251E06A
:104FF00064E271E090E080E00E942309FF91EF916C
:10500000BF91AF919F918F917F916F915F914F91E0
:105010003F912F910F900BBE0F900FBE0F901F90DE
:1050200018951F920F920FB60F9211240BB60F9284
:105030002F933F934F935F936F937F938F939F93A0
:10504000AF93BF93EF93FF9348EA50E064EA70E0B8
:1050500083E090E00E942309FF91EF91BF91AF910F
:105060009F918F917F916F915F914F913F912F9180
:105070000F900BBE0F900FBE0F901F9018951F92B0
:105080000F920FB60F9211240BB60F922F933F93EE
:105090004F935F936F937F938F939F93AF93BF9340
:1050A000EF93FF9348E950E064E970E082E090E01C
:1050B0000E942309FF91EF91BF91AF919F918F9132
:1050C0007F916F915F914F913F912F910F900BBE08
:1050D0000F900FBE0F901F9018951F920F920FB652
:1050E0000F9211240BB60F922F933F934F935F9320
:1050F0006F937F938F939F93AF93BF93EF93FF93A0
:1051000048E850E064E870E081E090E00E94230904
:10511000FF91EF91BF91AF919F918F917F916F918F
:105120005F914F913F912F910F900BBE0F900FBE4B
:105130000F901F9018951F920F920FB60F92112487
:105140000BB60F922F933F934F935F936F937F9381
:105150008F939F93AF93BF93EF93FF938091B90089
:10516000887F803609F44DC008F040C0883209F4C9
:10517000A7C028F5803109F49BC0C8F4882309F43E
:10518000F7C0883009F494C0FF91EF91BF91AF91BF
:105190009F918F917F916F915F914F913F912F914F
:1051A0000F900BBE0F900FBE0F901F901895883177
:1051B00009F486C0803241F78093C40514C080345E
:1051C00009F49BC040F48033B9F38833E9F6809347
:1051D000C40585ECAEC0803509F483C0883509F478
:1051E00094C0883489F60E948A1CCECF883909F48D
:1051F0008AC038F5883729F050F4883611F08037A6
:1052000019F683E08093C5051092C30555C0883810
:1052100009F479C0803919F0803809F0B5CF809150
:10522000C305803208F06FC0E091C30581E08E0FA6
:105230008093C3058091BB00F0E0ED55FA4F808369
:105240003BC0803B39F0D0F4803A09F477C0883A0B
:1052500009F09ACF84E08093C5051092A2051092C0
:10526000A105F0E0E0E019958091A10581110FC042
:1052700081E08093A1051092810509C0803C09F46A
:10528000A8CF883C09F4A5CF883B09F07DCFE091F9
:10529000A20581E08E0F8093A205F0E0EF57FA4F50
:1052A00080818093BB009091A2058091A10529C0C7
:1052B0008091EA058093BB0085EC8093BC0064CFAD
:1052C0009091E9058091E805981758F5E091E90576
:1052D00081E08E0F8093E905F0E0E853FA4F80817A
:1052E000E9CFE091E90581E08E0F8093E905809197
:1052F000BB00F0E0E853FA4F80839091E90580917C
:10530000E8059817C8F285E8D8CFE091E90581E073
:105310008E0F8093E9058091BB00F0E0E853FA4FCF
:1053200080838091C70581115ECF81E08093C6059F
:1053300084EA8093BC001092C50526CF85EC80934B
:10534000BC001092C5058091C305803230F4E09115
:10535000C305F0E0ED55FA4F10826091C30570E08F
:1053600083EA95E0F0E0E0E019951092C3050CCFD8
:105370001092C40538CF109291061092900688EED4
:1053800093E0A0E0B0E08093920690939306A09300
:105390009406B093950680E692E090938F068093F2
:1053A0008E0685EC90E090939B0680939A0684ECA1
:1053B00090E090939D0680939C0680EC90E0909303
:1053C0009F0680939E0681EC90E09093A1068093C7
:1053D000A00682EC90E09093A3068093A20686EC50
:1053E00090E09093A5068093A4061092A7061092D1
:1053F000A8061092A9061092AA069FEF90932B0779
:1054000010922D0710922C07109237071092360732
:105410004FEF5FEFBA014093320750933307609329
:105420003407709335074CEF5FE060E070E0409325
:1054300038075093390760933A0770933B07809180
:10544000CD07803318F591E0980F9093CD078093A6
:10545000150890E0FC01EE0FFF1FE80FF91FE35C59
:10546000F84F88EB9BE0928381838EEC97E00E945B
:10547000C50410921108109212081092130882E7C6
:1054800092E09093CF078093CE07089590931508EC
:10549000ECCFCF93DF93CDB7DEB7E7970FB6F89495
:1054A000DEBF0FBECDBF789484B5826084BD84B565
:1054B000816084BD85B5826085BD85B5816085BD0F
:1054C00080916E00816080936E00109281008091C7
:1054D000810082608093810080918100816080934F
:1054E0008100809180008160809380008091B10074
:1054F00084608093B1008091B00081608093B0009F
:1055000080919100826080939100809191008160F0
:1055100080939100809190008160809390008091B1
:10552000A10082608093A1008091A100816080939E
:10553000A1008091A00081608093A0008091210152
:1055400082608093210180912101816080932101FB
:105550008091200181608093200180917A00846095
:1055600080937A0080917A00826080937A008091A3
:105570007A00816080937A0080917A0080688093BD
:105580007A001092C100E0919E06F0919F0612E011
:105590001083E0919A06F0919B061082E0919C06A0
:1055A000F0919D068FEC80831092A606E091A206F2
:1055B000F091A30686E08083E091A006F091A10619
:1055C000808180618083E091A006F091A1068081B6
:1055D00088608083E091A006F091A10680818068B8
:1055E0008083E091A006F091A10680818F7D808369
:1055F0000E94831DFC01E25BFF4F8AE0E82EF12C44
:10560000F586E486F786E6860E94831D61E0825B6C
:105610009F4F0E9442100E94831DFC01E25BFF4FDE
:10562000148B158B0E94831D6AE175E0825B9F4F8E
:105630000E949B1B0E94831DFC01E25BFF4FF586CD
:10564000E4868EE190E0978786870E94831D6C0137
:105650000E9480162AA33BA34CA35DA36EA37FA345
:1056600088A799A789019A01AB01BC01CE010196D7
:105670004ADB67E275E0CE018A960E94721CBE0189
:105680006F5F7F4FCE018A960E94D81BBC01C60176
:10569000825B9F4F0E946305CE018A960E94821C06
:1056A000CE0101960E94821C0E94831DFC01E25BD8
:1056B000FF4FF586E48682E390E0978786870E9415
:1056C000831D6C0181E0082F8AA71BA683E0282F89
:1056D0008CA71DA68BE0482F8EA71FA619AA18AA73
:1056E00010E030E050E060E079A9CE0101960BDBDC
:1056F0006BE275E0CE01C2960E94721CBE016F5F24
:105700007F4FCE01C2960E94D81BBC01C601825BAE
:105710009F4F0E946305CE01C2960E94821CCE015B
:1057200001960E94821C0E94831DFC01E25BFF4FD8
:10573000F586E48686E490E0978786870E94831D3D
:10574000825B9F4F5C010E94831D85E40E94C50718
:10575000BC01990F880B990B6ED520E030E040EA30
:1057600050E4C8D520E030E040E85AE3C3D520E05B
:1057700030E0A901C5D66B017C012BE734E146E896
:1057800050E48AD718160CF487C224E13EEA47E8B1
:1057900050E4C701B60149D587FFEEC02CE53FE8CC
:1057A00042E850E4C701B60177D718160CF0E4C000
:1057B00024E13EEA47E850E4C701B601A0D620E064
:1057C00030E040E751EC96D520E037ED43E25EEB68
:1057D000FBD620E030E048EC52E492D61BAA1AAA8D
:1057E0001DAA1CAA1FAA1EAA8E010F5F1F4F22E02E
:1057F00044E064D2009709F458C2BC01CE01C296BD
:105800000E94281C61E375E0CE0101960E94721C83
:10581000BE016E5C7F4FCE0101960E94D81B7C01B9
:10582000FC01C480D580FFEFCF1ADF0AB6010E94C9
:105830009E1B882309F43EC2F701208131818481B7
:10584000958167E375E0820F931F0E94A835F701E9
:10585000D582C482B701C5010E946305CE010196BD
:105860000E94821CCE01C2960E94821C0E94831D4F
:10587000FC01E25BFF4F85E090E09587848788E735
:1058800090E0978786870E94831DFC01E25BFF4FB3
:1058900011E0148B158B0E94831D69E375E0825B18
:1058A0009F4F0E949B1B0E94831DFC01E25BFF4FE8
:1058B0008FE090E0958784878EE690E097878687D3
:1058C0000E94831DFC01E25BFF4F148B158B0E942D
:1058D000831D8C01CE010196D6D86EE475E0CE0111
:1058E000C2960E94721CBE016F5F7F4FCE01C296AE
:1058F0000E94D81BBC01C801825B9F4F0E946305B8
:10590000CE01C2960E94821CCE0101960E94821C8A
:105910000E94831D4FEF50E060E070E00E94050898
:1059200064EF71E080E090E00E94B7080E94831D60
:1059300040E05FEF60E070E00E94050864EF71E016
:1059400080E090E00E94B7080E94831D40E050E094
:105950006FEF70E00E94050864EF71E080E090E076
:105960000E94B7080E94831D40E050E0BA010E94E7
:1059700005080E947106FDCF2CE53FE842E850E49F
:10598000C701B60152D487FF1FC025E83BEE41E8AE
:1059900050E4C701B60180D61816B4F42CE53FE8F0
:1059A00042E850E4C701B601AAD520E433E343E559
:1059B00050ECA0D420E037ED43EA5CEB05D620E0C4
:1059C00030E04AEA52E409CF25E83BEE41E850E4F2
:1059D000C701B6012AD487FF1FC027ED33EA40E88C
:1059E00050E4C701B60158D61816B4F425E83BEECA
:1059F00041E850E4C701B60182D520E030E040EA3A
:105A000050EC78D420E037ED43E25DEBDDD526E6BF
:105A100036E643EA52E4E1CE27ED33EA40E850E4CB
:105A2000C701B60102D487FF1FC022E538EB4EE75D
:105A300050E4C701B60130D61816B4F427ED33EAA6
:105A400040E850E4C701B6015AD520E233E343E50C
:105A500050EC50D420E037ED43E25DEBB5D526E6BF
:105A600036E649E952E4B9CE22E538EB4EE750E498
:105A7000C701B601DAD387FF1FC02CEE31E548E736
:105A800050E4C701B60108D61816B4F422E538EB85
:105A90004EE750E4C701B60132D520E030E040E7E0
:105AA00051EC28D420EC3CEC4CEC5DEB8DD52DEC8E
:105AB0003CEC42E952E491CE2CEE31E548E750E46B
:105AC000C701B601B2D387FF1FC023E333E343E727
:105AD00050E4C701B601E0D51816B4F42CEE31E558
